S0030000FC
S11346002222222222222222222222222222222286
S11346102222222222222222222222222222222276
S11346202222222222222222222222222222222266
S11346302222222222222222222222222222222256
S11346402222222222222222222222222222222246
S11346502222222222222222222222222222222236
S11346602222222222222222222222222222222226
S11346702222222222222222222222222222222216
S11346802222222222222222222222222222222206
S113469022222222222222222222222222222222F6
S11346A022222222222222222222222222222222E6
S11346B022222222222222222222222222222222D6
S11346C022222222222222222222222222222222C6
S11346D022222222222222222222222222222222B6
S11346E022222222222222222222222222222222A6
S11346F02222222222222222222222222222222296
S11356008888888888888888888888888888888816
S11356108888888888888888888888888888888806
S113562088888888888888888888888888888888F6
S113563088888888888888888888888888888888E6
S113564088888888888888888888888888888888D6
S113565088888888888888888888888888888888C6
S113566088888888888888888888888888888888B6
S113567088888888888888888888888888888888A6
S11356808888888888888888888888888888888896
S11356908888888888888888888888888888888886
S11356A08888888888888888888888888888888876
S11356B08888888888888888888888888888888866
S11356C08888888888888888888888888888888856
S11356D08888888888888888888888888888888846
S11356E08888888888888888888888888888888836
S11356F08888888888888888888888888888888826
S1134000C6FFCE4600CD5600A600180A40306A709E
S108401080012AF43FC9
S9030000FC
